{
  "_format": "hh-sol-artifact-1",
  "contractName": "EventFactory",
  "sourceName": "contracts/EventFactory.sol",
  "abi": [
    {
      "anonymous": false,
      "inputs": [
        {
          "indexed": true,
          "internalType": "address",
          "name": "eventAddress",
          "type": "address"
        },
        {
          "indexed": true,
          "internalType": "address",
          "name": "organizer",
          "type": "address"
        }
      ],
      "name": "EventCreated",
      "type": "event"
    },
    {
      "inputs": [
        {
          "internalType": "uint256",
          "name": "",
          "type": "uint256"
        }
      ],
      "name": "allEvents",
      "outputs": [
        {
          "internalType": "address",
          "name": "",
          "type": "address"
        }
      ],
      "stateMutability": "view",
      "type": "function"
    },
    {
      "inputs": [
        {
          "internalType": "string",
          "name": "name",
          "type": "string"
        },
        {
          "internalType": "uint256",
          "name": "date",
          "type": "uint256"
        },
        {
          "internalType": "uint256",
          "name": "price",
          "type": "uint256"
        },
        {
          "internalType": "uint256",
          "name": "supply",
          "type": "uint256"
        }
      ],
      "name": "createEvent",
      "outputs": [],
      "stateMutability": "nonpayable",
      "type": "function"
    },
    {
      "inputs": [],
      "name": "getAllEvents",
      "outputs": [
        {
          "internalType": "address[]",
          "name": "",
          "type": "address[]"
        }
      ],
      "stateMutability": "view",
      "type": "function"
    },
    {
      "inputs": [],
      "name": "getMyEvents",
      "outputs": [
        {
          "internalType": "address[]",
          "name": "",
          "type": "address[]"
        }
      ],
      "stateMutability": "view",
      "type": "function"
    }
  ],
  "bytecode": "0x6080604052348015600f57600080fd5b506145f38061001f6000396000f3fe608060405234801561001057600080fd5b506004361061004c5760003560e01c80630374ab0b146100515780633548124b1461006d5780633bec5cff1461008b578063c27a500d146100bb575b600080fd5b61006b60048036038101906100669190610663565b6100d9565b005b6100756101e0565b60405161008291906107db565b60405180910390f35b6100a560048036038101906100a091906107fd565b6104e4565b6040516100b29190610839565b60405180910390f35b6100c3610523565b6040516100d091906107db565b60405180910390f35b60008585858585336040516100ed906105b1565b6100fc969594939291906108c1565b604051809103906000f080158015610118573d6000803e3d6000fd5b5090506000819080600181540180825580915050600190039060005260206000200160009091909190916101000a81548173ffffffffffffffffffffffffffffffffffffffff021916908373ffffffffffffffffffffffffffffffffffffffff1602179055503373ffffffffffffffffffffffffffffffffffffffff168173ffffffffffffffffffffffffffffffffffffffff167feccebe7b9eb846e30e8b21dfb66cad3313d87176fcd3b0a708737943afdaf82060405160405180910390a3505050505050565b6060600080600090505b6000805490508110156102f2573373ffffffffffffffffffffffffffffffffffffffff16600082815481106102225761022161091d565b5b9060005260206000200160009054906101000a900473ffffffffffffffffffffffffffffffffffffffff1673ffffffffffffffffffffffffffffffffffffffff1663612032656040518163ffffffff1660e01b8152600401602060405180830381865afa158015610297573d6000803e3d6000fd5b505050506040513d601f19601f820116820180604052508101906102bb9190610978565b73ffffffffffffffffffffffffffffffffffffffff16036102e55781806102e1906109d4565b9250505b80806001019150506101ea565b5060008167ffffffffffffffff81111561030f5761030e610a1c565b5b60405190808252806020026020018201604052801561033d5781602001602082028036833780820191505090505b509050600080600090505b6000805490508110156104da573373ffffffffffffffffffffffffffffffffffffffff16600082815481106103805761037f61091d565b5b9060005260206000200160009054906101000a900473ffffffffffffffffffffffffffffffffffffffff1673ffffffffffffffffffffffffffffffffffffffff1663612032656040518163ffffffff1660e01b8152600401602060405180830381865afa1580156103f5573d6000803e3d6000fd5b505050506040513d601f19601f820116820180604052508101906104199190610978565b73ffffffffffffffffffffffffffffffffffffffff16036104cd57600081815481106104485761044761091d565b5b9060005260206000200160009054906101000a900473ffffffffffffffffffffffffffffffffffffffff1683838061047f906109d4565b9450815181106104925761049161091d565b5b602002602001019073ffffffffffffffffffffffffffffffffffffffff16908173ffffffffffffffffffffffffffffffffffffffff16815250505b8080600101915050610348565b5081935050505090565b600081815481106104f457600080fd5b906000526020600020016000915054906101000a900473ffffffffffffffffffffffffffffffffffffffff1681565b606060008054806020026020016040519081016040528092919081815260200182805480156105a757602002820191906000526020600020905b8160009054906101000a900473ffffffffffffffffffffffffffffffffffffffff1673ffffffffffffffffffffffffffffffffffffffff168152602001906001019080831161055d575b5050505050905090565b613b7280610a4c83390190565b600080fd5b600080fd5b600080fd5b600080fd5b600080fd5b60008083601f8401126105ed576105ec6105c8565b5b8235905067ffffffffffffffff81111561060a576106096105cd565b5b602083019150836001820283011115610626576106256105d2565b5b9250929050565b6000819050919050565b6106408161062d565b811461064b57600080fd5b50565b60008135905061065d81610637565b92915050565b60008060008060006080868803121561067f5761067e6105be565b5b600086013567ffffffffffffffff81111561069d5761069c6105c3565b5b6106a9888289016105d7565b955095505060206106bc8882890161064e565b93505060406106cd8882890161064e565b92505060606106de8882890161064e565b9150509295509295909350565b600081519050919050565b600082825260208201905092915050565b6000819050602082019050919050565b600073ffffffffffffffffffffffffffffffffffffffff82169050919050565b600061074282610717565b9050919050565b61075281610737565b82525050565b60006107648383610749565b60208301905092915050565b6000602082019050919050565b6000610788826106eb565b61079281856106f6565b935061079d83610707565b8060005b838110156107ce5781516107b58882610758565b97506107c083610770565b9250506001810190506107a1565b5085935050505092915050565b600060208201905081810360008301526107f5818461077d565b905092915050565b600060208284031215610813576108126105be565b5b60006108218482850161064e565b91505092915050565b61083381610737565b82525050565b600060208201905061084e600083018461082a565b92915050565b600082825260208201905092915050565b82818337600083830152505050565b6000601f19601f8301169050919050565b60006108918385610854565b935061089e838584610865565b6108a783610874565b840190509392505050565b6108bb8161062d565b82525050565b600060a08201905081810360008301526108dc81888a610885565b90506108eb60208301876108b2565b6108f860408301866108b2565b61090560608301856108b2565b610912608083018461082a565b979650505050505050565b7f4e487b7100000000000000000000000000000000000000000000000000000000600052603260045260246000fd5b61095581610737565b811461096057600080fd5b50565b6000815190506109728161094c565b92915050565b60006020828403121561098e5761098d6105be565b5b600061099c84828501610963565b91505092915050565b7f4e487b7100000000000000000000000000000000000000000000000000000000600052601160045260246000fd5b60006109df8261062d565b91507fffffffffffffffffffffffffffffffffffffffffffffffffffffffffffffffff8203610a1157610a106109a5565b5b600182019050919050565b7f4e487b7100000000000000000000000000000000000000000000000000000000600052604160045260246000fdfe608060405234801561001057600080fd5b50604051613b72380380613b7283398181016040528101906100329190610341565b6040518060400160405280600b81526020017f4576656e745469636b65740000000000000000000000000000000000000000008152506040518060400160405280600481526020017f455449580000000000000000000000000000000000000000000000000000000081525081600090816100ad91906105ef565b5080600190816100bd91906105ef565b505050600160068190555084600790816100d791906105ef565b50836008819055508260098190555081600a8190555080600c60006101000a81548173ffffffffffffffffffffffffffffffffffffffff021916908373ffffffffffffffffffffffffffffffffffffffff16021790555050505050506106c1565b6000604051905090565b600080fd5b600080fd5b600080fd5b600080fd5b6000601f19601f8301169050919050565b7f4e487b7100000000000000000000000000000000000000000000000000000000600052604160045260246000fd5b61019f82610156565b810181811067ffffffffffffffff821117156101be576101bd610167565b5b80604052505050565b60006101d1610138565b90506101dd8282610196565b919050565b600067ffffffffffffffff8211156101fd576101fc610167565b5b61020682610156565b9050602081019050919050565b60005b83811015610231578082015181840152602081019050610216565b60008484015250505050565b600061025061024b846101e2565b6101c7565b90508281526020810184848401111561026c5761026b610151565b5b610277848285610213565b509392505050565b600082601f8301126102945761029361014c565b5b81516102a484826020860161023d565b91505092915050565b6000819050919050565b6102c0816102ad565b81146102cb57600080fd5b50565b6000815190506102dd816102b7565b92915050565b600073ffffffffffffffffffffffffffffffffffffffff82169050919050565b600061030e826102e3565b9050919050565b61031e81610303565b811461032957600080fd5b50565b60008151905061033b81610315565b92915050565b600080600080600060a0868803121561035d5761035c610142565b5b600086015167ffffffffffffffff81111561037b5761037a610147565b5b6103878882890161027f565b9550506020610398888289016102ce565b94505060406103a9888289016102ce565b93505060606103ba888289016102ce565b92505060806103cb8882890161032c565b9150509295509295909350565b600081519050919050565b7f4e487b7100000000000000000000000000000000000000000000000000000000600052602260045260246000fd5b6000600282049050600182168061042a57607f821691505b60208210810361043d5761043c6103e3565b5b50919050565b60008190508160005260206000209050919050565b60006020601f8301049050919050565b600082821b905092915050565b6000600883026104a57fffffffffffffffffffffffffffffffffffffffffffffffffffffffffffffffff82610468565b6104af8683610468565b95508019841693508086168417925050509392505050565b6000819050919050565b60006104ec6104e76104e2846102ad565b6104c7565b6102ad565b9050919050565b6000819050919050565b610506836104d1565b61051a610512826104f3565b848454610475565b825550505050565b600090565b61052f610522565b61053a8184846104fd565b505050565b5b8181101561055e57610553600082610527565b600181019050610540565b5050565b601f8211156105a35761057481610443565b61057d84610458565b8101602085101561058c578190505b6105a061059885610458565b83018261053f565b50505b505050565b600082821c905092915050565b60006105c6600019846008026105a8565b1980831691505092915050565b60006105df83836105b5565b9150826002028217905092915050565b6105f8826103d8565b67ffffffffffffffff81111561061157610610610167565b5b61061b8254610412565b610626828285610562565b600060209050601f8311600181146106595760008415610647578287015190505b61065185826105d3565b8655506106b9565b601f19841661066786610443565b60005b8281101561068f5784890151825560018201915060208501945060208101905061066a565b868310156106ac57848901516106a8601f8916826105b5565b8355505b6001600288020188555050505b505050505050565b6134a2806106d06000396000f3fe6080604052600436106101405760003560e01c806361203265116100b6578063b88d4fde1161006f578063b88d4fde1461045e578063c87b56dd14610487578063d5abeb01146104c4578063e1d10d85146104ef578063e985e9c51461051a578063edca914c1461055757610140565b8063612032651461033a5780636352211e1461036557806370a08231146103a25780638043c9c0146103df57806395d89b411461040a578063a22cb4651461043557610140565b80631209b1f6116101085780631209b1f61461023e57806323b872dd146102695780632aa51bdf1461029257806342842e0e146102bd5780634bfbe5df146102e657806351958a561461031157610140565b806301ffc9a71461014557806302c7e7af1461018257806306fdde03146101ad578063081812fc146101d8578063095ea7b314610215575b600080fd5b34801561015157600080fd5b5061016c600480360381019061016791906122f9565b610561565b6040516101799190612341565b60405180910390f35b34801561018e57600080fd5b50610197610643565b6040516101a49190612375565b60405180910390f35b3480156101b957600080fd5b506101c2610649565b6040516101cf9190612420565b60405180910390f35b3480156101e457600080fd5b506101ff60048036038101906101fa919061246e565b6106db565b60405161020c91906124dc565b60405180910390f35b34801561022157600080fd5b5061023c60048036038101906102379190612523565b610721565b005b34801561024a57600080fd5b50610253610838565b6040516102609190612375565b60405180910390f35b34801561027557600080fd5b50610290600480360381019061028b9190612563565b61083e565b005b34801561029e57600080fd5b506102a761089e565b6040516102b49190612674565b60405180910390f35b3480156102c957600080fd5b506102e460048036038101906102df9190612563565b610986565b005b3480156102f257600080fd5b506102fb6109a6565b6040516103089190612375565b60405180910390f35b34801561031d57600080fd5b5061033860048036038101906103339190612523565b6109ac565b005b34801561034657600080fd5b5061034f610b76565b60405161035c91906124dc565b60405180910390f35b34801561037157600080fd5b5061038c6004803603810190610387919061246e565b610b9c565b60405161039991906124dc565b60405180910390f35b3480156103ae57600080fd5b506103c960048036038101906103c49190612696565b610c22565b6040516103d69190612375565b60405180910390f35b3480156103eb57600080fd5b506103f4610cd9565b6040516104019190612420565b60405180910390f35b34801561041657600080fd5b5061041f610d67565b60405161042c9190612420565b60405180910390f35b34801561044157600080fd5b5061045c600480360381019061045791906126ef565b610df9565b005b34801561046a57600080fd5b5061048560048036038101906104809190612864565b610e0f565b005b34801561049357600080fd5b506104ae60048036038101906104a9919061246e565b610e71565b6040516104bb9190612420565b60405180910390f35b3480156104d057600080fd5b506104d9610ed9565b6040516104e69190612375565b60405180910390f35b3480156104fb57600080fd5b50610504610edf565b6040516105119190612674565b60405180910390f35b34801561052657600080fd5b50610541600480360381019061053c91906128e7565b610f74565b60405161054e9190612341565b60405180910390f35b61055f611008565b005b60007f80ac58cd000000000000000000000000000000000000000000000000000000007bffffffffffffffffffffffffffffffffffffffffffffffffffffffff1916827bffffffffffffffffffffffffffffffffffffffffffffffffffffffff1916148061062c57507f5b5e139f000000000000000000000000000000000000000000000000000000007bffffffffffffffffffffffffffffffffffffffffffffffffffffffff1916827bffffffffffffffffffffffffffffffffffffffffffffffffffffffff1916145b8061063c575061063b826112bd565b5b9050919050565b600b5481565b60606000805461065890612956565b80601f016020809104026020016040519081016040528092919081815260200182805461068490612956565b80156106d15780601f106106a6576101008083540402835291602001916106d1565b820191906000526020600020905b8154815290600101906020018083116106b457829003601f168201915b5050505050905090565b60006106e682611327565b6004600083815260200190815260200160002060009054906101000a900473ffffffffffffffffffffffffffffffffffffffff169050919050565b600061072c82610b9c565b90508073ffffffffffffffffffffffffffffffffffffffff168373ffffffffffffffffffffffffffffffffffffffff160361079c576040517f08c379a0000000000000000000000000000000000000000000000000000000008152600401610793906129f9565b60405180910390fd5b8073ffffffffffffffffffffffffffffffffffffffff166107bb611372565b73ffffffffffffffffffffffffffffffffffffffff1614806107ea57506107e9816107e4611372565b610f74565b5b610829576040517f08c379a000000000000000000000000000000000000000000000000000000000815260040161082090612a8b565b60405180910390fd5b610833838361137a565b505050565b60095481565b61084f610849611372565b82611433565b61088e576040517f08c379a000000000000000000000000000000000000000000000000000000000815260040161088590612b1d565b60405180910390fd5b6108998383836114c8565b505050565b6060600c60009054906101000a900473ffffffffffffffffffffffffffffffffffffffff1673ffffffffffffffffffffffffffffffffffffffff163373ffffffffffffffffffffffffffffffffffffffff1614610930576040517f08c379a000000000000000000000000000000000000000000000000000000000815260040161092790612b89565b60405180910390fd5b600e80548060200260200160405190810160405280929190818152602001828054801561097c57602002820191906000526020600020905b815481526020019060010190808311610968575b5050505050905090565b6109a183838360405180602001604052806000815250610e0f565b505050565b60085481565b6109b46117c1565b3373ffffffffffffffffffffffffffffffffffffffff166109d482610b9c565b73ffffffffffffffffffffffffffffffffffffffff1614610a2a576040517f08c379a0000000000000000000000000000000000000000000000000000000008152600401610a2190612bf5565b60405180910390fd5b610a4533838360405180602001604052806000815250611810565b610a4f338261186c565b600f60008373ffffffffffffffffffffffffffffffffffffffff1673ffffffffffffffffffffffffffffffffffffffff168152602001908152602001600020805490506010600083815260200190815260200160002081905550600f60008373ffffffffffffffffffffffffffffffffffffffff1673ffffffffffffffffffffffffffffffffffffffff168152602001908152602001600020819080600181540180825580915050600190039060005260206000200160009091909190915055808273ffffffffffffffffffffffffffffffffffffffff163373ffffffffffffffffffffffffffffffffffffffff167f17fe3deddce525fa12700a731e77ea94c319000ee656076e9e3f0d21638db76660405160405180910390a4610b72611a15565b5050565b600c60009054906101000a900473ffffffffffffffffffffffffffffffffffffffff1681565b600080610ba883611a1f565b9050600073ffffffffffffffffffffffffffffffffffffffff168173ffffffffffffffffffffffffffffffffffffffff1603610c19576040517f08c379a0000000000000000000000000000000000000000000000000000000008152600401610c1090612c61565b60405180910390fd5b80915050919050565b60008073ffffffffffffffffffffffffffffffffffffffff168273ffffffffffffffffffffffffffffffffffffffff1603610c92576040517f08c379a0000000000000000000000000000000000000000000000000000000008152600401610c8990612cf3565b60405180910390fd5b600360008373ffffffffffffffffffffffffffffffffffffffff1673ffffffffffffffffffffffffffffffffffffffff168152602001908152602001600020549050919050565b60078054610ce690612956565b80601f0160208091040260200160405190810160405280929190818152602001828054610d1290612956565b8015610d5f5780601f10610d3457610100808354040283529160200191610d5f565b820191906000526020600020905b815481529060010190602001808311610d4257829003601f168201915b505050505081565b606060018054610d7690612956565b80601f0160208091040260200160405190810160405280929190818152602001828054610da290612956565b8015610def5780601f10610dc457610100808354040283529160200191610def565b820191906000526020600020905b815481529060010190602001808311610dd257829003601f168201915b5050505050905090565b610e0b610e04611372565b8383611a5c565b5050565b610e20610e1a611372565b83611433565b610e5f576040517f08c379a0000000000000000000000000000000000000000000000000000000008152600401610e5690612b1d565b60405180910390fd5b610e6b84848484611810565b50505050565b6060610e7c82611327565b6000610e86611bc8565b90506000815111610ea65760405180602001604052806000815250610ed1565b80610eb084611bdf565b604051602001610ec1929190612d4f565b6040516020818303038152906040525b915050919050565b600a5481565b6060600f60003373ffffffffffffffffffffffffffffffffffffffff1673ffffffffffffffffffffffffffffffffffffffff168152602001908152602001600020805480602002602001604051908101604052809291908181526020018280548015610f6a57602002820191906000526020600020905b815481526020019060010190808311610f56575b5050505050905090565b6000600560008473ffffffffffffffffffffffffffffffffffffffff1673ffffffffffffffffffffffffffffffffffffffff16815260200190815260200160002060008373ffffffffffffffffffffffffffffffffffffffff1673ffffffffffffffffffffffffffffffffffffffff16815260200190815260200160002060009054906101000a900460ff16905092915050565b6110106117c1565b600854421115611055576040517f08c379a000000000000000000000000000000000000000000000000000000000815260040161104c90612dbf565b60405180910390fd5b600a54600b541061109b576040517f08c379a000000000000000000000000000000000000000000000000000000000815260040161109290612e2b565b60405180910390fd5b60095434146110df576040517f08c379a00000000000000000000000000000000000000000000000000000000081526004016110d690612e97565b60405180910390fd5b6000600d600081546110f090612ee6565b91905081905590506001600b600082825461110b9190612f2e565b9250508190555061111c3382611cad565b600e819080600181540180825580915050600190039060005260206000200160009091909190915055600f60003373ffffffffffffffffffffffffffffffffffffffff1673ffffffffffffffffffffffffffffffffffffffff168152602001908152602001600020805490506010600083815260200190815260200160002081905550600f60003373ffffffffffffffffffffffffffffffffffffffff1673ffffffffffffffffffffffffffffffffffffffff168152602001908152602001600020819080600181540180825580915050600190039060005260206000200160009091909190915055600c60009054906101000a900473ffffffffffffffffffffffffffffffffffffffff1673ffffffffffffffffffffffffffffffffffffffff166108fc349081150290604051600060405180830381858888f1935050505015801561126d573d6000803e3d6000fd5b50803373ffffffffffffffffffffffffffffffffffffffff167f0668f5b446eb814fe35b3206f43f14bd8567ba04ddaf7a3ee56516929ab22ccb60405160405180910390a3506112bb611a15565b565b60007f01ffc9a7000000000000000000000000000000000000000000000000000000007bffffffffffffffffffffffffffffffffffffffffffffffffffffffff1916827bffffffffffffffffffffffffffffffffffffffffffffffffffffffff1916149050919050565b61133081611ccb565b61136f576040517f08c379a000000000000000000000000000000000000000000000000000000000815260040161136690612c61565b60405180910390fd5b50565b600033905090565b816004600083815260200190815260200160002060006101000a81548173ffffffffffffffffffffffffffffffffffffffff021916908373ffffffffffffffffffffffffffffffffffffffff160217905550808273ffffffffffffffffffffffffffffffffffffffff166113ed83610b9c565b73ffffffffffffffffffffffffffffffffffffffff167f8c5be1e5ebec7d5bd14f71427d1e84f3dd0314c0f7b2291e5b200ac8c7c3b92560405160405180910390a45050565b60008061143f83610b9c565b90508073ffffffffffffffffffffffffffffffffffffffff168473ffffffffffffffffffffffffffffffffffffffff16148061148157506114808185610f74565b5b806114bf57508373ffffffffffffffffffffffffffffffffffffffff166114a7846106db565b73ffffffffffffffffffffffffffffffffffffffff16145b91505092915050565b8273ffffffffffffffffffffffffffffffffffffffff166114e882610b9c565b73ffffffffffffffffffffffffffffffffffffffff161461153e576040517f08c379a000000000000000000000000000000000000000000000000000000000815260040161153590612fd4565b60405180910390fd5b600073ffffffffffffffffffffffffffffffffffffffff168273ffffffffffffffffffffffffffffffffffffffff16036115ad576040517f08c379a00000000000000000000000000000000000000000000000000000000081526004016115a490613066565b60405180910390fd5b6115ba8383836001611d0c565b8273ffffffffffffffffffffffffffffffffffffffff166115da82610b9c565b73ffffffffffffffffffffffffffffffffffffffff1614611630576040517f08c379a000000000000000000000000000000000000000000000000000000000815260040161162790612fd4565b60405180910390fd5b6004600082815260200190815260200160002060006101000a81549073ffffffffffffffffffffffffffffffffffffffff02191690556001600360008573ffffffffffffffffffffffffffffffffffffffff1673ffffffffffffffffffffffffffffffffffffffff168152602001908152602001600020600082825403925050819055506001600360008473ffffffffffffffffffffffffffffffffffffffff1673ffffffffffffffffffffffffffffffffffffffff16815260200190815260200160002060008282540192505081905550816002600083815260200190815260200160002060006101000a81548173ffffffffffffffffffffffffffffffffffffffff021916908373ffffffffffffffffffffffffffffffffffffffff160217905550808273ffffffffffffffffffffffffffffffffffffffff168473ffffffffffffffffffffffffffffffffffffffff167fddf252ad1be2c89b69c2b068fc378daa952ba7f163c4a11628f55a4df523b3ef60405160405180910390a46117bc8383836001611d12565b505050565b600260065403611806576040517f08c379a00000000000000000000000000000000000000000000000000000000081526004016117fd906130d2565b60405180910390fd5b6002600681905550565b61181b8484846114c8565b61182784848484611d18565b611866576040517f08c379a000000000000000000000000000000000000000000000000000000000815260040161185d90613164565b60405180910390fd5b50505050565b6000601060008381526020019081526020016000205490506000600f60008573ffffffffffffffffffffffffffffffffffffffff1673ffffffffffffffffffffffffffffffffffffffff1681526020019081526020016000206001600f60008773ffffffffffffffffffffffffffffffffffffffff1673ffffffffffffffffffffffffffffffffffffffff168152602001908152602001600020805490506119149190613184565b81548110611925576119246131b8565b5b9060005260206000200154905080600f60008673ffffffffffffffffffffffffffffffffffffffff1673ffffffffffffffffffffffffffffffffffffffff1681526020019081526020016000208381548110611984576119836131b8565b5b9060005260206000200181905550816010600083815260200190815260200160002081905550600f60008573ffffffffffffffffffffffffffffffffffffffff1673ffffffffffffffffffffffffffffffffffffffff1681526020019081526020016000208054806119f9576119f86131e7565b5b6001900381819060005260206000200160009055905550505050565b6001600681905550565b60006002600083815260200190815260200160002060009054906101000a900473ffffffffffffffffffffffffffffffffffffffff169050919050565b8173ffffffffffffffffffffffffffffffffffffffff168373ffffffffffffffffffffffffffffffffffffffff1603611aca576040517f08c379a0000000000000000000000000000000000000000000000000000000008152600401611ac190613262565b60405180910390fd5b80600560008573ffffffffffffffffffffffffffffffffffffffff1673ffffffffffffffffffffffffffffffffffffffff16815260200190815260200160002060008473ffffffffffffffffffffffffffffffffffffffff1673ffffffffffffffffffffffffffffffffffffffff16815260200190815260200160002060006101000a81548160ff0219169083151502179055508173ffffffffffffffffffffffffffffffffffffffff168373ffffffffffffffffffffffffffffffffffffffff167f17307eab39ab6107e8899845ad3d59bd9653f200f220920489ca2b5937696c3183604051611bbb9190612341565b60405180910390a3505050565b606060405180602001604052806000815250905090565b606060006001611bee84611e9f565b01905060008167ffffffffffffffff811115611c0d57611c0c612739565b5b6040519080825280601f01601f191660200182016040528015611c3f5781602001600182028036833780820191505090505b509050600082602001820190505b600115611ca2578080600190039150507f3031323334353637383961626364656600000000000000000000000000000000600a86061a8153600a8581611c9657611c95613282565b5b04945060008503611c4d575b819350505050919050565b611cc7828260405180602001604052806000815250611ff2565b5050565b60008073ffffffffffffffffffffffffffffffffffffffff16611ced83611a1f565b73ffffffffffffffffffffffffffffffffffffffff1614159050919050565b50505050565b50505050565b6000611d398473ffffffffffffffffffffffffffffffffffffffff1661204d565b15611e92578373ffffffffffffffffffffffffffffffffffffffff1663150b7a02611d62611372565b8786866040518563ffffffff1660e01b8152600401611d849493929190613306565b6020604051808303816000875af1925050508015611dc057506040513d601f19601f82011682018060405250810190611dbd9190613367565b60015b611e42573d8060008114611df0576040519150601f19603f3d011682016040523d82523d6000602084013e611df5565b606091505b506000815103611e3a576040517f08c379a0000000000000000000000000000000000000000000000000000000008152600401611e3190613164565b60405180910390fd5b805181602001fd5b63150b7a0260e01b7bffffffffffffffffffffffffffffffffffffffffffffffffffffffff1916817bffffffffffffffffffffffffffffffffffffffffffffffffffffffff191614915050611e97565b600190505b949350505050565b600080600090507a184f03e93ff9f4daa797ed6e38ed64bf6a1f0100000000000000008310611efd577a184f03e93ff9f4daa797ed6e38ed64bf6a1f0100000000000000008381611ef357611ef2613282565b5b0492506040810190505b6d04ee2d6d415b85acef81000000008310611f3a576d04ee2d6d415b85acef81000000008381611f3057611f2f613282565b5b0492506020810190505b662386f26fc100008310611f6957662386f26fc100008381611f5f57611f5e613282565b5b0492506010810190505b6305f5e1008310611f92576305f5e1008381611f8857611f87613282565b5b0492506008810190505b6127108310611fb7576127108381611fad57611fac613282565b5b0492506004810190505b60648310611fda5760648381611fd057611fcf613282565b5b0492506002810190505b600a8310611fe9576001810190505b80915050919050565b611ffc8383612070565b6120096000848484611d18565b612048576040517f08c379a000000000000000000000000000000000000000000000000000000000815260040161203f90613164565b60405180910390fd5b505050565b6000808273ffffffffffffffffffffffffffffffffffffffff163b119050919050565b600073ffffffffffffffffffffffffffffffffffffffff168273ffffffffffffffffffffffffffffffffffffffff16036120df576040517f08c379a00000000000000000000000000000000000000000000000000000000081526004016120d6906133e0565b60405180910390fd5b6120e881611ccb565b15612128576040517f08c379a000000000000000000000000000000000000000000000000000000000815260040161211f9061344c565b60405180910390fd5b612136600083836001611d0c565b61213f81611ccb565b1561217f576040517f08c379a00000000000000000000000000000000000000000000000000000000081526004016121769061344c565b60405180910390fd5b6001600360008473ffffffffffffffffffffffffffffffffffffffff1673ffffffffffffffffffffffffffffffffffffffff16815260200190815260200160002060008282540192505081905550816002600083815260200190815260200160002060006101000a81548173ffffffffffffffffffffffffffffffffffffffff021916908373ffffffffffffffffffffffffffffffffffffffff160217905550808273ffffffffffffffffffffffffffffffffffffffff16600073ffffffffffffffffffffffffffffffffffffffff167fddf252ad1be2c89b69c2b068fc378daa952ba7f163c4a11628f55a4df523b3ef60405160405180910390a4612289600083836001611d12565b5050565b6000604051905090565b600080fd5b600080fd5b60007fffffffff0000000000000000000000000000000000000000000000000000000082169050919050565b6122d6816122a1565b81146122e157600080fd5b50565b6000813590506122f3816122cd565b92915050565b60006020828403121561230f5761230e612297565b5b600061231d848285016122e4565b91505092915050565b60008115159050919050565b61233b81612326565b82525050565b60006020820190506123566000830184612332565b92915050565b6000819050919050565b61236f8161235c565b82525050565b600060208201905061238a6000830184612366565b92915050565b600081519050919050565b600082825260208201905092915050565b60005b838110156123ca5780820151818401526020810190506123af565b60008484015250505050565b6000601f19601f8301169050919050565b60006123f282612390565b6123fc818561239b565b935061240c8185602086016123ac565b612415816123d6565b840191505092915050565b6000602082019050818103600083015261243a81846123e7565b905092915050565b61244b8161235c565b811461245657600080fd5b50565b60008135905061246881612442565b92915050565b60006020828403121561248457612483612297565b5b600061249284828501612459565b91505092915050565b600073ffffffffffffffffffffffffffffffffffffffff82169050919050565b60006124c68261249b565b9050919050565b6124d6816124bb565b82525050565b60006020820190506124f160008301846124cd565b92915050565b612500816124bb565b811461250b57600080fd5b50565b60008135905061251d816124f7565b92915050565b6000806040838503121561253a57612539612297565b5b60006125488582860161250e565b925050602061255985828601612459565b9150509250929050565b60008060006060848603121561257c5761257b612297565b5b600061258a8682870161250e565b935050602061259b8682870161250e565b92505060406125ac86828701612459565b9150509250925092565b600081519050919050565b600082825260208201905092915050565b6000819050602082019050919050565b6125eb8161235c565b82525050565b60006125fd83836125e2565b60208301905092915050565b6000602082019050919050565b6000612621826125b6565b61262b81856125c1565b9350612636836125d2565b8060005b8381101561266757815161264e88826125f1565b975061265983612609565b92505060018101905061263a565b5085935050505092915050565b6000602082019050818103600083015261268e8184612616565b905092915050565b6000602082840312156126ac576126ab612297565b5b60006126ba8482850161250e565b91505092915050565b6126cc81612326565b81146126d757600080fd5b50565b6000813590506126e9816126c3565b92915050565b6000806040838503121561270657612705612297565b5b60006127148582860161250e565b9250506020612725858286016126da565b9150509250929050565b600080fd5b600080fd5b7f4e487b7100000000000000000000000000000000000000000000000000000000600052604160045260246000fd5b612771826123d6565b810181811067ffffffffffffffff821117156127905761278f612739565b5b80604052505050565b60006127a361228d565b90506127af8282612768565b919050565b600067ffffffffffffffff8211156127cf576127ce612739565b5b6127d8826123d6565b9050602081019050919050565b82818337600083830152505050565b6000612807612802846127b4565b612799565b90508281526020810184848401111561282357612822612734565b5b61282e8482856127e5565b509392505050565b600082601f83011261284b5761284a61272f565b5b813561285b8482602086016127f4565b91505092915050565b6000806000806080858703121561287e5761287d612297565b5b600061288c8782880161250e565b945050602061289d8782880161250e565b93505060406128ae87828801612459565b925050606085013567ffffffffffffffff8111156128cf576128ce61229c565b5b6128db87828801612836565b91505092959194509250565b600080604083850312156128fe576128fd612297565b5b600061290c8582860161250e565b925050602061291d8582860161250e565b9150509250929050565b7f4e487b7100000000000000000000000000000000000000000000000000000000600052602260045260246000fd5b6000600282049050600182168061296e57607f821691505b60208210810361298157612980612927565b5b50919050565b7f4552433732313a20617070726f76616c20746f2063757272656e74206f776e6560008201527f7200000000000000000000000000000000000000000000000000000000000000602082015250565b60006129e360218361239b565b91506129ee82612987565b604082019050919050565b60006020820190508181036000830152612a12816129d6565b9050919050565b7f4552433732313a20617070726f76652063616c6c6572206973206e6f7420746f60008201527f6b656e206f776e6572206f7220617070726f76656420666f7220616c6c000000602082015250565b6000612a75603d8361239b565b9150612a8082612a19565b604082019050919050565b60006020820190508181036000830152612aa481612a68565b9050919050565b7f4552433732313a2063616c6c6572206973206e6f7420746f6b656e206f776e6560008201527f72206f7220617070726f76656400000000000000000000000000000000000000602082015250565b6000612b07602d8361239b565b9150612b1282612aab565b604082019050919050565b60006020820190508181036000830152612b3681612afa565b9050919050565b7f4e6f74206f7267616e697a657200000000000000000000000000000000000000600082015250565b6000612b73600d8361239b565b9150612b7e82612b3d565b602082019050919050565b60006020820190508181036000830152612ba281612b66565b9050919050565b7f4e6f74206f776e65720000000000000000000000000000000000000000000000600082015250565b6000612bdf60098361239b565b9150612bea82612ba9565b602082019050919050565b60006020820190508181036000830152612c0e81612bd2565b9050919050565b7f4552433732313a20696e76616c696420746f6b656e2049440000000000000000600082015250565b6000612c4b60188361239b565b9150612c5682612c15565b602082019050919050565b60006020820190508181036000830152612c7a81612c3e565b9050919050565b7f4552433732313a2061646472657373207a65726f206973206e6f74206120766160008201527f6c6964206f776e65720000000000000000000000000000000000000000000000602082015250565b6000612cdd60298361239b565b9150612ce882612c81565b604082019050919050565b60006020820190508181036000830152612d0c81612cd0565b9050919050565b600081905092915050565b6000612d2982612390565b612d338185612d13565b9350612d438185602086016123ac565b80840191505092915050565b6000612d5b8285612d1e565b9150612d678284612d1e565b91508190509392505050565b7f4576656e74207061737365640000000000000000000000000000000000000000600082015250565b6000612da9600c8361239b565b9150612db482612d73565b602082019050919050565b60006020820190508181036000830152612dd881612d9c565b9050919050565b7f536f6c64206f7574000000000000000000000000000000000000000000000000600082015250565b6000612e1560088361239b565b9150612e2082612ddf565b602082019050919050565b60006020820190508181036000830152612e4481612e08565b9050919050565b7f496e636f7272656374204554482073656e740000000000000000000000000000600082015250565b6000612e8160128361239b565b9150612e8c82612e4b565b602082019050919050565b60006020820190508181036000830152612eb081612e74565b9050919050565b7f4e487b7100000000000000000000000000000000000000000000000000000000600052601160045260246000fd5b6000612ef18261235c565b91507fffffffffffffffffffffffffffffffffffffffffffffffffffffffffffffffff8203612f2357612f22612eb7565b5b600182019050919050565b6000612f398261235c565b9150612f448361235c565b9250828201905080821115612f5c57612f5b612eb7565b5b92915050565b7f4552433732313a207472616e736665722066726f6d20696e636f72726563742060008201527f6f776e6572000000000000000000000000000000000000000000000000000000602082015250565b6000612fbe60258361239b565b9150612fc982612f62565b604082019050919050565b60006020820190508181036000830152612fed81612fb1565b9050919050565b7f4552433732313a207472616e7366657220746f20746865207a65726f2061646460008201527f7265737300000000000000000000000000000000000000000000000000000000602082015250565b600061305060248361239b565b915061305b82612ff4565b604082019050919050565b6000602082019050818103600083015261307f81613043565b9050919050565b7f5265656e7472616e637947756172643a207265656e7472616e742063616c6c00600082015250565b60006130bc601f8361239b565b91506130c782613086565b602082019050919050565b600060208201905081810360008301526130eb816130af565b9050919050565b7f4552433732313a207472616e7366657220746f206e6f6e20455243373231526560008201527f63656976657220696d706c656d656e7465720000000000000000000000000000602082015250565b600061314e60328361239b565b9150613159826130f2565b604082019050919050565b6000602082019050818103600083015261317d81613141565b9050919050565b600061318f8261235c565b915061319a8361235c565b92508282039050818111156131b2576131b1612eb7565b5b92915050565b7f4e487b7100000000000000000000000000000000000000000000000000000000600052603260045260246000fd5b7f4e487b7100000000000000000000000000000000000000000000000000000000600052603160045260246000fd5b7f4552433732313a20617070726f766520746f2063616c6c657200000000000000600082015250565b600061324c60198361239b565b915061325782613216565b602082019050919050565b6000602082019050818103600083015261327b8161323f565b9050919050565b7f4e487b7100000000000000000000000000000000000000000000000000000000600052601260045260246000fd5b600081519050919050565b600082825260208201905092915050565b60006132d8826132b1565b6132e281856132bc565b93506132f28185602086016123ac565b6132fb816123d6565b840191505092915050565b600060808201905061331b60008301876124cd565b61332860208301866124cd565b6133356040830185612366565b818103606083015261334781846132cd565b905095945050505050565b600081519050613361816122cd565b92915050565b60006020828403121561337d5761337c612297565b5b600061338b84828501613352565b91505092915050565b7f4552433732313a206d696e7420746f20746865207a65726f2061646472657373600082015250565b60006133ca60208361239b565b91506133d582613394565b602082019050919050565b600060208201905081810360008301526133f9816133bd565b9050919050565b7f4552433732313a20746f6b656e20616c7265616479206d696e74656400000000600082015250565b6000613436601c8361239b565b915061344182613400565b602082019050919050565b6000602082019050818103600083015261346581613429565b905091905056fea2646970667358221220750b16518eacb42cbc243a769e9300058c5a597fd6a9d7d1255d96e3574c641e64736f6c634300081c0033a2646970667358221220a9ce6ca11856abab67955021692b33df3e42f417265a7cc5aad944748a2192e164736f6c634300081c0033",
  "linkReferences": {},
  "deployedLinkReferences": {}
}