{
  "_format": "hh-sol-artifact-1",
  "contractName": "Event",
  "sourceName": "contracts/Event.sol",
  "abi": [
    {
      "inputs": [
        {
          "internalType": "string",
          "name": "_name",
          "type": "string"
        },
        {
          "internalType": "uint256",
          "name": "_date",
          "type": "uint256"
        },
        {
          "internalType": "uint256",
          "name": "_price",
          "type": "uint256"
        },
        {
          "internalType": "uint256",
          "name": "_supply",
          "type": "uint256"
        },
        {
          "internalType": "address",
          "name": "_organizer",
          "type": "address"
        }
      ],
      "stateMutability": "nonpayable",
      "type": "constructor"
    },
    {
      "anonymous": false,
      "inputs": [
        {
          "indexed": true,
          "internalType": "address",
          "name": "owner",
          "type": "address"
        },
        {
          "indexed": true,
          "internalType": "address",
          "name": "approved",
          "type": "address"
        },
        {
          "indexed": true,
          "internalType": "uint256",
          "name": "tokenId",
          "type": "uint256"
        }
      ],
      "name": "Approval",
      "type": "event"
    },
    {
      "anonymous": false,
      "inputs": [
        {
          "indexed": true,
          "internalType": "address",
          "name": "owner",
          "type": "address"
        },
        {
          "indexed": true,
          "internalType": "address",
          "name": "operator",
          "type": "address"
        },
        {
          "indexed": false,
          "internalType": "bool",
          "name": "approved",
          "type": "bool"
        }
      ],
      "name": "ApprovalForAll",
      "type": "event"
    },
    {
      "anonymous": false,
      "inputs": [
        {
          "indexed": true,
          "internalType": "address",
          "name": "seller",
          "type": "address"
        },
        {
          "indexed": true,
          "internalType": "uint256",
          "name": "ticketId",
          "type": "uint256"
        }
      ],
      "name": "ListingCancelled",
      "type": "event"
    },
    {
      "anonymous": false,
      "inputs": [
        {
          "indexed": true,
          "internalType": "address",
          "name": "seller",
          "type": "address"
        },
        {
          "indexed": true,
          "internalType": "uint256",
          "name": "ticketId",
          "type": "uint256"
        },
        {
          "indexed": false,
          "internalType": "uint256",
          "name": "price",
          "type": "uint256"
        },
        {
          "indexed": false,
          "internalType": "uint256",
          "name": "expiresAt",
          "type": "uint256"
        }
      ],
      "name": "TicketListed",
      "type": "event"
    },
    {
      "anonymous": false,
      "inputs": [
        {
          "indexed": true,
          "internalType": "address",
          "name": "buyer",
          "type": "address"
        },
        {
          "indexed": true,
          "internalType": "uint256",
          "name": "ticketId",
          "type": "uint256"
        }
      ],
      "name": "TicketPurchased",
      "type": "event"
    },
    {
      "anonymous": false,
      "inputs": [
        {
          "indexed": true,
          "internalType": "address",
          "name": "buyer",
          "type": "address"
        },
        {
          "indexed": true,
          "internalType": "address",
          "name": "seller",
          "type": "address"
        },
        {
          "indexed": true,
          "internalType": "uint256",
          "name": "ticketId",
          "type": "uint256"
        },
        {
          "indexed": false,
          "internalType": "uint256",
          "name": "price",
          "type": "uint256"
        }
      ],
      "name": "TicketSale",
      "type": "event"
    },
    {
      "anonymous": false,
      "inputs": [
        {
          "indexed": true,
          "internalType": "address",
          "name": "from",
          "type": "address"
        },
        {
          "indexed": true,
          "internalType": "address",
          "name": "to",
          "type": "address"
        },
        {
          "indexed": true,
          "internalType": "uint256",
          "name": "ticketId",
          "type": "uint256"
        }
      ],
      "name": "TicketTransferred",
      "type": "event"
    },
    {
      "anonymous": false,
      "inputs": [
        {
          "indexed": true,
          "internalType": "address",
          "name": "from",
          "type": "address"
        },
        {
          "indexed": true,
          "internalType": "address",
          "name": "to",
          "type": "address"
        },
        {
          "indexed": true,
          "internalType": "uint256",
          "name": "tokenId",
          "type": "uint256"
        }
      ],
      "name": "Transfer",
      "type": "event"
    },
    {
      "inputs": [
        {
          "internalType": "address",
          "name": "to",
          "type": "address"
        },
        {
          "internalType": "uint256",
          "name": "tokenId",
          "type": "uint256"
        }
      ],
      "name": "approve",
      "outputs": [],
      "stateMutability": "nonpayable",
      "type": "function"
    },
    {
      "inputs": [
        {
          "internalType": "address",
          "name": "owner",
          "type": "address"
        }
      ],
      "name": "balanceOf",
      "outputs": [
        {
          "internalType": "uint256",
          "name": "",
          "type": "uint256"
        }
      ],
      "stateMutability": "view",
      "type": "function"
    },
    {
      "inputs": [
        {
          "internalType": "uint256",
          "name": "tokenId",
          "type": "uint256"
        }
      ],
      "name": "buyListedTicket",
      "outputs": [],
      "stateMutability": "payable",
      "type": "function"
    },
    {
      "inputs": [],
      "name": "buyTicket",
      "outputs": [],
      "stateMutability": "payable",
      "type": "function"
    },
    {
      "inputs": [
        {
          "internalType": "uint256",
          "name": "tokenId",
          "type": "uint256"
        }
      ],
      "name": "cancelListing",
      "outputs": [],
      "stateMutability": "nonpayable",
      "type": "function"
    },
    {
      "inputs": [],
      "name": "eventDate",
      "outputs": [
        {
          "internalType": "uint256",
          "name": "",
          "type": "uint256"
        }
      ],
      "stateMutability": "view",
      "type": "function"
    },
    {
      "inputs": [],
      "name": "eventName",
      "outputs": [
        {
          "internalType": "string",
          "name": "",
          "type": "string"
        }
      ],
      "stateMutability": "view",
      "type": "function"
    },
    {
      "inputs": [
        {
          "internalType": "uint256",
          "name": "tokenId",
          "type": "uint256"
        }
      ],
      "name": "getApproved",
      "outputs": [
        {
          "internalType": "address",
          "name": "",
          "type": "address"
        }
      ],
      "stateMutability": "view",
      "type": "function"
    },
    {
      "inputs": [
        {
          "internalType": "uint256",
          "name": "tokenId",
          "type": "uint256"
        }
      ],
      "name": "getListing",
      "outputs": [
        {
          "components": [
            {
              "internalType": "address",
              "name": "seller",
              "type": "address"
            },
            {
              "internalType": "uint256",
              "name": "price",
              "type": "uint256"
            },
            {
              "internalType": "uint256",
              "name": "expiresAt",
              "type": "uint256"
            }
          ],
          "internalType": "struct Event.Listing",
          "name": "",
          "type": "tuple"
        }
      ],
      "stateMutability": "view",
      "type": "function"
    },
    {
      "inputs": [],
      "name": "getMyTickets",
      "outputs": [
        {
          "internalType": "uint256[]",
          "name": "",
          "type": "uint256[]"
        }
      ],
      "stateMutability": "view",
      "type": "function"
    },
    {
      "inputs": [],
      "name": "getSoldTickets",
      "outputs": [
        {
          "internalType": "uint256[]",
          "name": "",
          "type": "uint256[]"
        }
      ],
      "stateMutability": "view",
      "type": "function"
    },
    {
      "inputs": [
        {
          "internalType": "address",
          "name": "owner",
          "type": "address"
        },
        {
          "internalType": "address",
          "name": "operator",
          "type": "address"
        }
      ],
      "name": "isApprovedForAll",
      "outputs": [
        {
          "internalType": "bool",
          "name": "",
          "type": "bool"
        }
      ],
      "stateMutability": "view",
      "type": "function"
    },
    {
      "inputs": [
        {
          "internalType": "uint256",
          "name": "tokenId",
          "type": "uint256"
        },
        {
          "internalType": "uint256",
          "name": "price",
          "type": "uint256"
        },
        {
          "internalType": "uint256",
          "name": "expiresAt",
          "type": "uint256"
        }
      ],
      "name": "listTicket",
      "outputs": [],
      "stateMutability": "nonpayable",
      "type": "function"
    },
    {
      "inputs": [
        {
          "internalType": "uint256",
          "name": "",
          "type": "uint256"
        }
      ],
      "name": "listings",
      "outputs": [
        {
          "internalType": "address",
          "name": "seller",
          "type": "address"
        },
        {
          "internalType": "uint256",
          "name": "price",
          "type": "uint256"
        },
        {
          "internalType": "uint256",
          "name": "expiresAt",
          "type": "uint256"
        }
      ],
      "stateMutability": "view",
      "type": "function"
    },
    {
      "inputs": [],
      "name": "maxSupply",
      "outputs": [
        {
          "internalType": "uint256",
          "name": "",
          "type": "uint256"
        }
      ],
      "stateMutability": "view",
      "type": "function"
    },
    {
      "inputs": [],
      "name": "name",
      "outputs": [
        {
          "internalType": "string",
          "name": "",
          "type": "string"
        }
      ],
      "stateMutability": "view",
      "type": "function"
    },
    {
      "inputs": [],
      "name": "organizer",
      "outputs": [
        {
          "internalType": "address",
          "name": "",
          "type": "address"
        }
      ],
      "stateMutability": "view",
      "type": "function"
    },
    {
      "inputs": [
        {
          "internalType": "uint256",
          "name": "tokenId",
          "type": "uint256"
        }
      ],
      "name": "ownerOf",
      "outputs": [
        {
          "internalType": "address",
          "name": "",
          "type": "address"
        }
      ],
      "stateMutability": "view",
      "type": "function"
    },
    {
      "inputs": [
        {
          "internalType": "address",
          "name": "from",
          "type": "address"
        },
        {
          "internalType": "address",
          "name": "to",
          "type": "address"
        },
        {
          "internalType": "uint256",
          "name": "tokenId",
          "type": "uint256"
        }
      ],
      "name": "safeTransferFrom",
      "outputs": [],
      "stateMutability": "nonpayable",
      "type": "function"
    },
    {
      "inputs": [
        {
          "internalType": "address",
          "name": "from",
          "type": "address"
        },
        {
          "internalType": "address",
          "name": "to",
          "type": "address"
        },
        {
          "internalType": "uint256",
          "name": "tokenId",
          "type": "uint256"
        },
        {
          "internalType": "bytes",
          "name": "data",
          "type": "bytes"
        }
      ],
      "name": "safeTransferFrom",
      "outputs": [],
      "stateMutability": "nonpayable",
      "type": "function"
    },
    {
      "inputs": [
        {
          "internalType": "address",
          "name": "operator",
          "type": "address"
        },
        {
          "internalType": "bool",
          "name": "approved",
          "type": "bool"
        }
      ],
      "name": "setApprovalForAll",
      "outputs": [],
      "stateMutability": "nonpayable",
      "type": "function"
    },
    {
      "inputs": [],
      "name": "sold",
      "outputs": [
        {
          "internalType": "uint256",
          "name": "",
          "type": "uint256"
        }
      ],
      "stateMutability": "view",
      "type": "function"
    },
    {
      "inputs": [
        {
          "internalType": "bytes4",
          "name": "interfaceId",
          "type": "bytes4"
        }
      ],
      "name": "supportsInterface",
      "outputs": [
        {
          "internalType": "bool",
          "name": "",
          "type": "bool"
        }
      ],
      "stateMutability": "view",
      "type": "function"
    },
    {
      "inputs": [],
      "name": "symbol",
      "outputs": [
        {
          "internalType": "string",
          "name": "",
          "type": "string"
        }
      ],
      "stateMutability": "view",
      "type": "function"
    },
    {
      "inputs": [],
      "name": "ticketPrice",
      "outputs": [
        {
          "internalType": "uint256",
          "name": "",
          "type": "uint256"
        }
      ],
      "stateMutability": "view",
      "type": "function"
    },
    {
      "inputs": [
        {
          "internalType": "uint256",
          "name": "tokenId",
          "type": "uint256"
        }
      ],
      "name": "tokenURI",
      "outputs": [
        {
          "internalType": "string",
          "name": "",
          "type": "string"
        }
      ],
      "stateMutability": "view",
      "type": "function"
    },
    {
      "inputs": [
        {
          "internalType": "address",
          "name": "from",
          "type": "address"
        },
        {
          "internalType": "address",
          "name": "to",
          "type": "address"
        },
        {
          "internalType": "uint256",
          "name": "tokenId",
          "type": "uint256"
        }
      ],
      "name": "transferFrom",
      "outputs": [],
      "stateMutability": "nonpayable",
      "type": "function"
    },
    {
      "inputs": [
        {
          "internalType": "address",
          "name": "to",
          "type": "address"
        },
        {
          "internalType": "uint256",
          "name": "ticketId",
          "type": "uint256"
        }
      ],
      "name": "transferTicket",
      "outputs": [],
      "stateMutability": "nonpayable",
      "type": "function"
    }
  ],
  "bytecode": "0x60806040523480156200001157600080fd5b50604051620049b4380380620049b4833981810160405281019062000037919062000377565b6040518060400160405280600b81526020017f4576656e745469636b65740000000000000000000000000000000000000000008152506040518060400160405280600481526020017f45544958000000000000000000000000000000000000000000000000000000008152508160009081620000b491906200065f565b508060019081620000c691906200065f565b50505060016006819055508460079081620000e291906200065f565b50836008819055508260098190555081600a8190555080600c60006101000a81548173ffffffffffffffffffffffffffffffffffffffff021916908373ffffffffffffffffffffffffffffffffffffffff160217905550505050505062000746565b6000604051905090565b600080fd5b600080fd5b600080fd5b600080fd5b6000601f19601f8301169050919050565b7f4e487b7100000000000000000000000000000000000000000000000000000000600052604160045260246000fd5b620001ad8262000162565b810181811067ffffffffffffffff82111715620001cf57620001ce62000173565b5b80604052505050565b6000620001e462000144565b9050620001f28282620001a2565b919050565b600067ffffffffffffffff82111562000215576200021462000173565b5b620002208262000162565b9050602081019050919050565b60005b838110156200024d57808201518184015260208101905062000230565b60008484015250505050565b6000620002706200026a84620001f7565b620001d8565b9050828152602081018484840111156200028f576200028e6200015d565b5b6200029c8482856200022d565b509392505050565b600082601f830112620002bc57620002bb62000158565b5b8151620002ce84826020860162000259565b91505092915050565b6000819050919050565b620002ec81620002d7565b8114620002f857600080fd5b50565b6000815190506200030c81620002e1565b92915050565b600073ffffffffffffffffffffffffffffffffffffffff82169050919050565b60006200033f8262000312565b9050919050565b620003518162000332565b81146200035d57600080fd5b50565b600081519050620003718162000346565b92915050565b600080600080600060a086880312156200039657620003956200014e565b5b600086015167ffffffffffffffff811115620003b757620003b662000153565b5b620003c588828901620002a4565b9550506020620003d888828901620002fb565b9450506040620003eb88828901620002fb565b9350506060620003fe88828901620002fb565b9250506080620004118882890162000360565b9150509295509295909350565b600081519050919050565b7f4e487b7100000000000000000000000000000000000000000000000000000000600052602260045260246000fd5b600060028204905060018216806200047157607f821691505b60208210810362000487576200048662000429565b5b50919050565b60008190508160005260206000209050919050565b60006020601f8301049050919050565b600082821b905092915050565b600060088302620004f17fffffffffffffffffffffffffffffffffffffffffffffffffffffffffffffffff82620004b2565b620004fd8683620004b2565b95508019841693508086168417925050509392505050565b6000819050919050565b6000620005406200053a6200053484620002d7565b62000515565b620002d7565b9050919050565b6000819050919050565b6200055c836200051f565b620005746200056b8262000547565b848454620004bf565b825550505050565b600090565b6200058b6200057c565b6200059881848462000551565b505050565b5b81811015620005c057620005b460008262000581565b6001810190506200059e565b5050565b601f8211156200060f57620005d9816200048d565b620005e484620004a2565b81016020851015620005f4578190505b6200060c6200060385620004a2565b8301826200059d565b50505b505050565b600082821c905092915050565b6000620006346000198460080262000614565b1980831691505092915050565b60006200064f838362000621565b9150826002028217905092915050565b6200066a826200041e565b67ffffffffffffffff81111562000686576200068562000173565b5b62000692825462000458565b6200069f828285620005c4565b600060209050601f831160018114620006d75760008415620006c2578287015190505b620006ce858262000641565b8655506200073e565b601f198416620006e7866200048d565b60005b828110156200071157848901518255600182019150602085019450602081019050620006ea565b868310156200073157848901516200072d601f89168262000621565b8355505b6001600288020188555050505b505050505050565b61425e80620007566000396000f3fe6080604052600436106101b75760003560e01c806361203265116100ec578063b88d4fde1161008a578063de74e57b11610064578063de74e57b14610611578063e1d10d8514610650578063e985e9c51461067b578063edca914c146106b8576101b7565b8063b88d4fde14610580578063c87b56dd146105a9578063d5abeb01146105e6576101b7565b80638043c9c0116100c65780638043c9c0146104d857806395d89b4114610503578063a22cb4651461052e578063b85e67af14610557576101b7565b806361203265146104335780636352211e1461045e57806370a082311461049b576101b7565b806323b872dd1161015957806342842e0e1161013357806342842e0e1461039a5780634bfbe5df146103c357806350248853146103ee57806351958a561461040a576101b7565b806323b872dd1461031d5780632aa51bdf14610346578063305a67a814610371576101b7565b8063081812fc11610195578063081812fc1461024f578063095ea7b31461028c578063107a274a146102b55780631209b1f6146102f2576101b7565b806301ffc9a7146101bc57806302c7e7af146101f957806306fdde0314610224575b600080fd5b3480156101c857600080fd5b506101e360048036038101906101de9190612ca2565b6106c2565b6040516101f09190612cea565b60405180910390f35b34801561020557600080fd5b5061020e6107a4565b60405161021b9190612d1e565b60405180910390f35b34801561023057600080fd5b506102396107aa565b6040516102469190612dc9565b60405180910390f35b34801561025b57600080fd5b5061027660048036038101906102719190612e17565b61083c565b6040516102839190612e85565b60405180910390f35b34801561029857600080fd5b506102b360048036038101906102ae9190612ecc565b610882565b005b3480156102c157600080fd5b506102dc60048036038101906102d79190612e17565b610999565b6040516102e99190612f6c565b60405180910390f35b3480156102fe57600080fd5b50610307610a30565b6040516103149190612d1e565b60405180910390f35b34801561032957600080fd5b50610344600480360381019061033f9190612f87565b610a36565b005b34801561035257600080fd5b5061035b610a96565b6040516103689190613089565b60405180910390f35b34801561037d57600080fd5b5061039860048036038101906103939190612e17565b610b7e565b005b3480156103a657600080fd5b506103c160048036038101906103bc9190612f87565b610cc1565b005b3480156103cf57600080fd5b506103d8610ce1565b6040516103e59190612d1e565b60405180910390f35b61040860048036038101906104039190612e17565b610ce7565b005b34801561041657600080fd5b50610431600480360381019061042c9190612ecc565b61106b565b005b34801561043f57600080fd5b50610448611235565b6040516104559190612e85565b60405180910390f35b34801561046a57600080fd5b5061048560048036038101906104809190612e17565b61125b565b6040516104929190612e85565b60405180910390f35b3480156104a757600080fd5b506104c260048036038101906104bd91906130ab565b6112e1565b6040516104cf9190612d1e565b60405180910390f35b3480156104e457600080fd5b506104ed611398565b6040516104fa9190612dc9565b60405180910390f35b34801561050f57600080fd5b50610518611426565b6040516105259190612dc9565b60405180910390f35b34801561053a57600080fd5b5061055560048036038101906105509190613104565b6114b8565b005b34801561056357600080fd5b5061057e60048036038101906105799190613144565b6114ce565b005b34801561058c57600080fd5b506105a760048036038101906105a291906132cc565b611737565b005b3480156105b557600080fd5b506105d060048036038101906105cb9190612e17565b611799565b6040516105dd9190612dc9565b60405180910390f35b3480156105f257600080fd5b506105fb611801565b6040516106089190612d1e565b60405180910390f35b34801561061d57600080fd5b5061063860048036038101906106339190612e17565b611807565b6040516106479392919061334f565b60405180910390f35b34801561065c57600080fd5b50610665611851565b6040516106729190613089565b60405180910390f35b34801561068757600080fd5b506106a2600480360381019061069d9190613386565b6118e6565b6040516106af9190612cea565b60405180910390f35b6106c061197a565b005b60007f80ac58cd000000000000000000000000000000000000000000000000000000007bffffffffffffffffffffffffffffffffffffffffffffffffffffffff1916827bffffffffffffffffffffffffffffffffffffffffffffffffffffffff1916148061078d57507f5b5e139f000000000000000000000000000000000000000000000000000000007bffffffffffffffffffffffffffffffffffffffffffffffffffffffff1916827bffffffffffffffffffffffffffffffffffffffffffffffffffffffff1916145b8061079d575061079c82611c2f565b5b9050919050565b600b5481565b6060600080546107b9906133f5565b80601f01602080910402602001604051908101604052809291908181526020018280546107e5906133f5565b80156108325780601f1061080757610100808354040283529160200191610832565b820191906000526020600020905b81548152906001019060200180831161081557829003601f168201915b5050505050905090565b600061084782611c99565b6004600083815260200190815260200160002060009054906101000a900473ffffffffffffffffffffffffffffffffffffffff169050919050565b600061088d8261125b565b90508073ffffffffffffffffffffffffffffffffffffffff168373ffffffffffffffffffffffffffffffffffffffff16036108fd576040517f08c379a00000000000000000000000000000000000000000000000000000000081526004016108f490613498565b60405180910390fd5b8073ffffffffffffffffffffffffffffffffffffffff1661091c611ce4565b73ffffffffffffffffffffffffffffffffffffffff16148061094b575061094a81610945611ce4565b6118e6565b5b61098a576040517f08c379a00000000000000000000000000000000000000000000000000000000081526004016109819061352a565b60405180910390fd5b6109948383611cec565b505050565b6109a1612bff565b601160008381526020019081526020016000206040518060600160405290816000820160009054906101000a900473ffffffffffffffffffffffffffffffffffffffff1673ffffffffffffffffffffffffffffffffffffffff1673ffffffffffffffffffffffffffffffffffffffff168152602001600182015481526020016002820154815250509050919050565b60095481565b610a47610a41611ce4565b82611da5565b610a86576040517f08c379a0000000000000000000000000000000000000000000000000000000008152600401610a7d906135bc565b60405180910390fd5b610a91838383611e3a565b505050565b6060600c60009054906101000a900473ffffffffffffffffffffffffffffffffffffffff1673ffffffffffffffffffffffffffffffffffffffff163373ffffffffffffffffffffffffffffffffffffffff1614610b28576040517f08c379a0000000000000000000000000000000000000000000000000000000008152600401610b1f90613628565b60405180910390fd5b600e805480602002602001604051908101604052809291908181526020018280548015610b7457602002820191906000526020600020905b815481526020019060010190808311610b60575b5050505050905090565b3373ffffffffffffffffffffffffffffffffffffffff166011600083815260200190815260200160002060000160009054906101000a900473ffffffffffffffffffffffffffffffffffffffff1673ffffffffffffffffffffffffffffffffffffffff1614610c22576040517f08c379a0000000000000000000000000000000000000000000000000000000008152600401610c1990613694565b60405180910390fd5b60116000828152602001908152602001600020600080820160006101000a81549073ffffffffffffffffffffffffffffffffffffffff0219169055600182016000905560028201600090555050610c7a600082610882565b803373ffffffffffffffffffffffffffffffffffffffff167f93ec4766fcd2d9dfdceab8f2e13ba0d9d826645cf03167fdb92b3b7359b5248c60405160405180910390a350565b610cdc83838360405180602001604052806000815250611737565b505050565b60085481565b610cef612133565b6000601160008381526020019081526020016000206040518060600160405290816000820160009054906101000a900473ffffffffffffffffffffffffffffffffffffffff1673ffffffffffffffffffffffffffffffffffffffff1673ffffffffffffffffffffffffffffffffffffffff168152602001600182015481526020016002820154815250509050600073ffffffffffffffffffffffffffffffffffffffff16816000015173ffffffffffffffffffffffffffffffffffffffff1603610dee576040517f08c379a0000000000000000000000000000000000000000000000000000000008152600401610de590613700565b60405180910390fd5b8060200151341015610e35576040517f08c379a0000000000000000000000000000000000000000000000000000000008152600401610e2c9061376c565b60405180910390fd5b8060400151421115610e7c576040517f08c379a0000000000000000000000000000000000000000000000000000000008152600401610e73906137d8565b60405180910390fd5b60116000838152602001908152602001600020600080820160006101000a81549073ffffffffffffffffffffffffffffffffffffffff0219169055600182016000905560028201600090555050806000015173ffffffffffffffffffffffffffffffffffffffff166108fc349081150290604051600060405180830381858888f19350505050158015610f13573d6000803e3d6000fd5b50610f2381600001513384611e3a565b610f31816000015183612182565b600f60003373ffffffffffffffffffffffffffffffffffffffff1673ffffffffffffffffffffffffffffffffffffffff168152602001908152602001600020805490506010600084815260200190815260200160002081905550600f60003373ffffffffffffffffffffffffffffffffffffffff1673ffffffffffffffffffffffffffffffffffffffff16815260200190815260200160002082908060018154018082558091505060019003906000526020600020016000909190919091505581816000015173ffffffffffffffffffffffffffffffffffffffff163373ffffffffffffffffffffffffffffffffffffffff167f4b058505e890459f8ae31cb63e35e899d9e176ffc441ae5d72c19f096378587284602001516040516110579190612d1e565b60405180910390a45061106861232b565b50565b611073612133565b3373ffffffffffffffffffffffffffffffffffffffff166110938261125b565b73ffffffffffffffffffffffffffffffffffffffff16146110e9576040517f08c379a00000000000000000000000000000000000000000000000000000000081526004016110e090613844565b60405180910390fd5b61110433838360405180602001604052806000815250612335565b61110e3382612182565b600f60008373ffffffffffffffffffffffffffffffffffffffff1673ffffffffffffffffffffffffffffffffffffffff168152602001908152602001600020805490506010600083815260200190815260200160002081905550600f60008373ffffffffffffffffffffffffffffffffffffffff1673ffffffffffffffffffffffffffffffffffffffff168152602001908152602001600020819080600181540180825580915050600190039060005260206000200160009091909190915055808273ffffffffffffffffffffffffffffffffffffffff163373ffffffffffffffffffffffffffffffffffffffff167f17fe3deddce525fa12700a731e77ea94c319000ee656076e9e3f0d21638db76660405160405180910390a461123161232b565b5050565b600c60009054906101000a900473ffffffffffffffffffffffffffffffffffffffff1681565b60008061126783612391565b9050600073ffffffffffffffffffffffffffffffffffffffff168173ffffffffffffffffffffffffffffffffffffffff16036112d8576040517f08c379a00000000000000000000000000000000000000000000000000000000081526004016112cf906138b0565b60405180910390fd5b80915050919050565b60008073ffffffffffffffffffffffffffffffffffffffff168273ffffffffffffffffffffffffffffffffffffffff1603611351576040517f08c379a000000000000000000000000000000000000000000000000000000000815260040161134890613942565b60405180910390fd5b600360008373ffffffffffffffffffffffffffffffffffffffff1673ffffffffffffffffffffffffffffffffffffffff168152602001908152602001600020549050919050565b600780546113a5906133f5565b80601f01602080910402602001604051908101604052809291908181526020018280546113d1906133f5565b801561141e5780601f106113f35761010080835404028352916020019161141e565b820191906000526020600020905b81548152906001019060200180831161140157829003601f168201915b505050505081565b606060018054611435906133f5565b80601f0160208091040260200160405190810160405280929190818152602001828054611461906133f5565b80156114ae5780601f10611483576101008083540402835291602001916114ae565b820191906000526020600020905b81548152906001019060200180831161149157829003601f168201915b5050505050905090565b6114ca6114c3611ce4565b83836123ce565b5050565b3373ffffffffffffffffffffffffffffffffffffffff166114ee8461125b565b73ffffffffffffffffffffffffffffffffffffffff1614611544576040517f08c379a000000000000000000000000000000000000000000000000000000000815260040161153b90613844565b60405180910390fd5b60008211611587576040517f08c379a000000000000000000000000000000000000000000000000000000000815260040161157e906139ae565b60405180910390fd5b4281116115c9576040517f08c379a00000000000000000000000000000000000000000000000000000000081526004016115c090613a1a565b60405180910390fd5b3073ffffffffffffffffffffffffffffffffffffffff166115e98461083c565b73ffffffffffffffffffffffffffffffffffffffff161461163f576040517f08c379a000000000000000000000000000000000000000000000000000000000815260040161163690613a86565b60405180910390fd5b60405180606001604052803373ffffffffffffffffffffffffffffffffffffffff168152602001838152602001828152506011600085815260200190815260200160002060008201518160000160006101000a81548173ffffffffffffffffffffffffffffffffffffffff021916908373ffffffffffffffffffffffffffffffffffffffff1602179055506020820151816001015560408201518160020155905050823373ffffffffffffffffffffffffffffffffffffffff167f23eabf2c40b66d70a460306f57312cc811888a6af4853292637615aaaf3e531e848460405161172a929190613aa6565b60405180910390a3505050565b611748611742611ce4565b83611da5565b611787576040517f08c379a000000000000000000000000000000000000000000000000000000000815260040161177e906135bc565b60405180910390fd5b61179384848484612335565b50505050565b60606117a482611c99565b60006117ae61253a565b905060008151116117ce57604051806020016040528060008152506117f9565b806117d884612551565b6040516020016117e9929190613b0b565b6040516020818303038152906040525b915050919050565b600a5481565b60116020528060005260406000206000915090508060000160009054906101000a900473ffffffffffffffffffffffffffffffffffffffff16908060010154908060020154905083565b6060600f60003373ffffffffffffffffffffffffffffffffffffffff1673ffffffffffffffffffffffffffffffffffffffff1681526020019081526020016000208054806020026020016040519081016040528092919081815260200182805480156118dc57602002820191906000526020600020905b8154815260200190600101908083116118c8575b5050505050905090565b6000600560008473ffffffffffffffffffffffffffffffffffffffff1673ffffffffffffffffffffffffffffffffffffffff16815260200190815260200160002060008373ffffffffffffffffffffffffffffffffffffffff1673ffffffffffffffffffffffffffffffffffffffff16815260200190815260200160002060009054906101000a900460ff16905092915050565b611982612133565b6008544211156119c7576040517f08c379a00000000000000000000000000000000000000000000000000000000081526004016119be90613b7b565b60405180910390fd5b600a54600b5410611a0d576040517f08c379a0000000000000000000000000000000000000000000000000000000008152600401611a0490613be7565b60405180910390fd5b6009543414611a51576040517f08c379a0000000000000000000000000000000000000000000000000000000008152600401611a4890613c53565b60405180910390fd5b6000600d60008154611a6290613ca2565b91905081905590506001600b6000828254611a7d9190613cea565b92505081905550611a8e338261261f565b600e819080600181540180825580915050600190039060005260206000200160009091909190915055600f60003373ffffffffffffffffffffffffffffffffffffffff1673ffffffffffffffffffffffffffffffffffffffff168152602001908152602001600020805490506010600083815260200190815260200160002081905550600f60003373ffffffffffffffffffffffffffffffffffffffff1673ffffffffffffffffffffffffffffffffffffffff168152602001908152602001600020819080600181540180825580915050600190039060005260206000200160009091909190915055600c60009054906101000a900473ffffffffffffffffffffffffffffffffffffffff1673ffffffffffffffffffffffffffffffffffffffff166108fc349081150290604051600060405180830381858888f19350505050158015611bdf573d6000803e3d6000fd5b50803373ffffffffffffffffffffffffffffffffffffffff167f0668f5b446eb814fe35b3206f43f14bd8567ba04ddaf7a3ee56516929ab22ccb60405160405180910390a350611c2d61232b565b565b60007f01ffc9a7000000000000000000000000000000000000000000000000000000007bffffffffffffffffffffffffffffffffffffffffffffffffffffffff1916827bffffffffffffffffffffffffffffffffffffffffffffffffffffffff1916149050919050565b611ca28161263d565b611ce1576040517f08c379a0000000000000000000000000000000000000000000000000000000008152600401611cd8906138b0565b60405180910390fd5b50565b600033905090565b816004600083815260200190815260200160002060006101000a81548173ffffffffffffffffffffffffffffffffffffffff021916908373ffffffffffffffffffffffffffffffffffffffff160217905550808273ffffffffffffffffffffffffffffffffffffffff16611d5f8361125b565b73ffffffffffffffffffffffffffffffffffffffff167f8c5be1e5ebec7d5bd14f71427d1e84f3dd0314c0f7b2291e5b200ac8c7c3b92560405160405180910390a45050565b600080611db18361125b565b90508073ffffffffffffffffffffffffffffffffffffffff168473ffffffffffffffffffffffffffffffffffffffff161480611df35750611df281856118e6565b5b80611e3157508373ffffffffffffffffffffffffffffffffffffffff16611e198461083c565b73ffffffffffffffffffffffffffffffffffffffff16145b91505092915050565b8273ffffffffffffffffffffffffffffffffffffffff16611e5a8261125b565b73ffffffffffffffffffffffffffffffffffffffff1614611eb0576040517f08c379a0000000000000000000000000000000000000000000000000000000008152600401611ea790613d90565b60405180910390fd5b600073ffffffffffffffffffffffffffffffffffffffff168273ffffffffffffffffffffffffffffffffffffffff1603611f1f576040517f08c379a0000000000000000000000000000000000000000000000000000000008152600401611f1690613e22565b60405180910390fd5b611f2c838383600161267e565b8273ffffffffffffffffffffffffffffffffffffffff16611f4c8261125b565b73ffffffffffffffffffffffffffffffffffffffff1614611fa2576040517f08c379a0000000000000000000000000000000000000000000000000000000008152600401611f9990613d90565b60405180910390fd5b6004600082815260200190815260200160002060006101000a81549073ffffffffffffffffffffffffffffffffffffffff02191690556001600360008573ffffffffffffffffffffffffffffffffffffffff1673ffffffffffffffffffffffffffffffffffffffff168152602001908152602001600020600082825403925050819055506001600360008473ffffffffffffffffffffffffffffffffffffffff1673ffffffffffffffffffffffffffffffffffffffff16815260200190815260200160002060008282540192505081905550816002600083815260200190815260200160002060006101000a81548173ffffffffffffffffffffffffffffffffffffffff021916908373ffffffffffffffffffffffffffffffffffffffff160217905550808273ffffffffffffffffffffffffffffffffffffffff168473ffffffffffffffffffffffffffffffffffffffff167fddf252ad1be2c89b69c2b068fc378daa952ba7f163c4a11628f55a4df523b3ef60405160405180910390a461212e8383836001612684565b505050565b600260065403612178576040517f08c379a000000000000000000000000000000000000000000000000000000000815260040161216f90613e8e565b60405180910390fd5b6002600681905550565b6000601060008381526020019081526020016000205490506000600f60008573ffffffffffffffffffffffffffffffffffffffff1673ffffffffffffffffffffffffffffffffffffffff1681526020019081526020016000206001600f60008773ffffffffffffffffffffffffffffffffffffffff1673ffffffffffffffffffffffffffffffffffffffff1681526020019081526020016000208054905061222a9190613eae565b8154811061223b5761223a613ee2565b5b9060005260206000200154905080600f60008673ffffffffffffffffffffffffffffffffffffffff1673ffffffffffffffffffffffffffffffffffffffff168152602001908152602001600020838154811061229a57612299613ee2565b5b9060005260206000200181905550816010600083815260200190815260200160002081905550600f60008573ffffffffffffffffffffffffffffffffffffffff1673ffffffffffffffffffffffffffffffffffffffff16815260200190815260200160002080548061230f5761230e613f11565b5b6001900381819060005260206000200160009055905550505050565b6001600681905550565b612340848484611e3a565b61234c8484848461268a565b61238b576040517f08c379a000000000000000000000000000000000000000000000000000000000815260040161238290613fb2565b60405180910390fd5b50505050565b60006002600083815260200190815260200160002060009054906101000a900473ffffffffffffffffffffffffffffffffffffffff169050919050565b8173ffffffffffffffffffffffffffffffffffffffff168373ffffffffffffffffffffffffffffffffffffffff160361243c576040517f08c379a00000000000000000000000000000000000000000000000000000000081526004016124339061401e565b60405180910390fd5b80600560008573ffffffffffffffffffffffffffffffffffffffff1673ffffffffffffffffffffffffffffffffffffffff16815260200190815260200160002060008473ffffffffffffffffffffffffffffffffffffffff1673ffffffffffffffffffffffffffffffffffffffff16815260200190815260200160002060006101000a81548160ff0219169083151502179055508173ffffffffffffffffffffffffffffffffffffffff168373ffffffffffffffffffffffffffffffffffffffff167f17307eab39ab6107e8899845ad3d59bd9653f200f220920489ca2b5937696c318360405161252d9190612cea565b60405180910390a3505050565b606060405180602001604052806000815250905090565b60606000600161256084612811565b01905060008167ffffffffffffffff81111561257f5761257e6131a1565b5b6040519080825280601f01601f1916602001820160405280156125b15781602001600182028036833780820191505090505b509050600082602001820190505b600115612614578080600190039150507f3031323334353637383961626364656600000000000000000000000000000000600a86061a8153600a85816126085761260761403e565b5b049450600085036125bf575b819350505050919050565b612639828260405180602001604052806000815250612964565b5050565b60008073ffffffffffffffffffffffffffffffffffffffff1661265f83612391565b73ffffffffffffffffffffffffffffffffffffffff1614159050919050565b50505050565b50505050565b60006126ab8473ffffffffffffffffffffffffffffffffffffffff166129bf565b15612804578373ffffffffffffffffffffffffffffffffffffffff1663150b7a026126d4611ce4565b8786866040518563ffffffff1660e01b81526004016126f694939291906140c2565b6020604051808303816000875af192505050801561273257506040513d601f19601f8201168201806040525081019061272f9190614123565b60015b6127b4573d8060008114612762576040519150601f19603f3d011682016040523d82523d6000602084013e612767565b606091505b5060008151036127ac576040517f08c379a00000000000000000000000000000000000000000000000000000000081526004016127a390613fb2565b60405180910390fd5b805181602001fd5b63150b7a0260e01b7bffffffffffffffffffffffffffffffffffffffffffffffffffffffff1916817bffffffffffffffffffffffffffffffffffffffffffffffffffffffff191614915050612809565b600190505b949350505050565b600080600090507a184f03e93ff9f4daa797ed6e38ed64bf6a1f010000000000000000831061286f577a184f03e93ff9f4daa797ed6e38ed64bf6a1f01000000000000000083816128655761286461403e565b5b0492506040810190505b6d04ee2d6d415b85acef810000000083106128ac576d04ee2d6d415b85acef810000000083816128a2576128a161403e565b5b0492506020810190505b662386f26fc1000083106128db57662386f26fc1000083816128d1576128d061403e565b5b0492506010810190505b6305f5e1008310612904576305f5e10083816128fa576128f961403e565b5b0492506008810190505b612710831061292957612710838161291f5761291e61403e565b5b0492506004810190505b6064831061294c57606483816129425761294161403e565b5b0492506002810190505b600a831061295b576001810190505b80915050919050565b61296e83836129e2565b61297b600084848461268a565b6129ba576040517f08c379a00000000000000000000000000000000000000000000000000000000081526004016129b190613fb2565b60405180910390fd5b505050565b6000808273ffffffffffffffffffffffffffffffffffffffff163b119050919050565b600073ffffffffffffffffffffffffffffffffffffffff168273ffffffffffffffffffffffffffffffffffffffff1603612a51576040517f08c379a0000000000000000000000000000000000000000000000000000000008152600401612a489061419c565b60405180910390fd5b612a5a8161263d565b15612a9a576040517f08c379a0000000000000000000000000000000000000000000000000000000008152600401612a9190614208565b60405180910390fd5b612aa860008383600161267e565b612ab18161263d565b15612af1576040517f08c379a0000000000000000000000000000000000000000000000000000000008152600401612ae890614208565b60405180910390fd5b6001600360008473ffffffffffffffffffffffffffffffffffffffff1673ffffffffffffffffffffffffffffffffffffffff16815260200190815260200160002060008282540192505081905550816002600083815260200190815260200160002060006101000a81548173ffffffffffffffffffffffffffffffffffffffff021916908373ffffffffffffffffffffffffffffffffffffffff160217905550808273ffffffffffffffffffffffffffffffffffffffff16600073ffffffffffffffffffffffffffffffffffffffff167fddf252ad1be2c89b69c2b068fc378daa952ba7f163c4a11628f55a4df523b3ef60405160405180910390a4612bfb600083836001612684565b5050565b6040518060600160405280600073ffffffffffffffffffffffffffffffffffffffff16815260200160008152602001600081525090565b6000604051905090565b600080fd5b600080fd5b60007fffffffff0000000000000000000000000000000000000000000000000000000082169050919050565b612c7f81612c4a565b8114612c8a57600080fd5b50565b600081359050612c9c81612c76565b92915050565b600060208284031215612cb857612cb7612c40565b5b6000612cc684828501612c8d565b91505092915050565b60008115159050919050565b612ce481612ccf565b82525050565b6000602082019050612cff6000830184612cdb565b92915050565b6000819050919050565b612d1881612d05565b82525050565b6000602082019050612d336000830184612d0f565b92915050565b600081519050919050565b600082825260208201905092915050565b60005b83811015612d73578082015181840152602081019050612d58565b60008484015250505050565b6000601f19601f8301169050919050565b6000612d9b82612d39565b612da58185612d44565b9350612db5818560208601612d55565b612dbe81612d7f565b840191505092915050565b60006020820190508181036000830152612de38184612d90565b905092915050565b612df481612d05565b8114612dff57600080fd5b50565b600081359050612e1181612deb565b92915050565b600060208284031215612e2d57612e2c612c40565b5b6000612e3b84828501612e02565b91505092915050565b600073ffffffffffffffffffffffffffffffffffffffff82169050919050565b6000612e6f82612e44565b9050919050565b612e7f81612e64565b82525050565b6000602082019050612e9a6000830184612e76565b92915050565b612ea981612e64565b8114612eb457600080fd5b50565b600081359050612ec681612ea0565b92915050565b60008060408385031215612ee357612ee2612c40565b5b6000612ef185828601612eb7565b9250506020612f0285828601612e02565b9150509250929050565b612f1581612e64565b82525050565b612f2481612d05565b82525050565b606082016000820151612f406000850182612f0c565b506020820151612f536020850182612f1b565b506040820151612f666040850182612f1b565b50505050565b6000606082019050612f816000830184612f2a565b92915050565b600080600060608486031215612fa057612f9f612c40565b5b6000612fae86828701612eb7565b9350506020612fbf86828701612eb7565b9250506040612fd086828701612e02565b9150509250925092565b600081519050919050565b600082825260208201905092915050565b6000819050602082019050919050565b60006130128383612f1b565b60208301905092915050565b6000602082019050919050565b600061303682612fda565b6130408185612fe5565b935061304b83612ff6565b8060005b8381101561307c5781516130638882613006565b975061306e8361301e565b92505060018101905061304f565b5085935050505092915050565b600060208201905081810360008301526130a3818461302b565b905092915050565b6000602082840312156130c1576130c0612c40565b5b60006130cf84828501612eb7565b91505092915050565b6130e181612ccf565b81146130ec57600080fd5b50565b6000813590506130fe816130d8565b92915050565b6000806040838503121561311b5761311a612c40565b5b600061312985828601612eb7565b925050602061313a858286016130ef565b9150509250929050565b60008060006060848603121561315d5761315c612c40565b5b600061316b86828701612e02565b935050602061317c86828701612e02565b925050604061318d86828701612e02565b9150509250925092565b600080fd5b600080fd5b7f4e487b7100000000000000000000000000000000000000000000000000000000600052604160045260246000fd5b6131d982612d7f565b810181811067ffffffffffffffff821117156131f8576131f76131a1565b5b80604052505050565b600061320b612c36565b905061321782826131d0565b919050565b600067ffffffffffffffff821115613237576132366131a1565b5b61324082612d7f565b9050602081019050919050565b82818337600083830152505050565b600061326f61326a8461321c565b613201565b90508281526020810184848401111561328b5761328a61319c565b5b61329684828561324d565b509392505050565b600082601f8301126132b3576132b2613197565b5b81356132c384826020860161325c565b91505092915050565b600080600080608085870312156132e6576132e5612c40565b5b60006132f487828801612eb7565b945050602061330587828801612eb7565b935050604061331687828801612e02565b925050606085013567ffffffffffffffff81111561333757613336612c45565b5b6133438782880161329e565b91505092959194509250565b60006060820190506133646000830186612e76565b6133716020830185612d0f565b61337e6040830184612d0f565b949350505050565b6000806040838503121561339d5761339c612c40565b5b60006133ab85828601612eb7565b92505060206133bc85828601612eb7565b9150509250929050565b7f4e487b7100000000000000000000000000000000000000000000000000000000600052602260045260246000fd5b6000600282049050600182168061340d57607f821691505b6020821081036134205761341f6133c6565b5b50919050565b7f4552433732313a20617070726f76616c20746f2063757272656e74206f776e6560008201527f7200000000000000000000000000000000000000000000000000000000000000602082015250565b6000613482602183612d44565b915061348d82613426565b604082019050919050565b600060208201905081810360008301526134b181613475565b9050919050565b7f4552433732313a20617070726f76652063616c6c6572206973206e6f7420746f60008201527f6b656e206f776e6572206f7220617070726f76656420666f7220616c6c000000602082015250565b6000613514603d83612d44565b915061351f826134b8565b604082019050919050565b6000602082019050818103600083015261354381613507565b9050919050565b7f4552433732313a2063616c6c6572206973206e6f7420746f6b656e206f776e6560008201527f72206f7220617070726f76656400000000000000000000000000000000000000602082015250565b60006135a6602d83612d44565b91506135b18261354a565b604082019050919050565b600060208201905081810360008301526135d581613599565b9050919050565b7f4e6f74206f7267616e697a657200000000000000000000000000000000000000600082015250565b6000613612600d83612d44565b915061361d826135dc565b602082019050919050565b6000602082019050818103600083015261364181613605565b9050919050565b7f4e6f742073656c6c657200000000000000000000000000000000000000000000600082015250565b600061367e600a83612d44565b915061368982613648565b602082019050919050565b600060208201905081810360008301526136ad81613671565b9050919050565b7f4e6f74206c697374656400000000000000000000000000000000000000000000600082015250565b60006136ea600a83612d44565b91506136f5826136b4565b602082019050919050565b60006020820190508181036000830152613719816136dd565b9050919050565b7f546f6f206c6974746c6520455448000000000000000000000000000000000000600082015250565b6000613756600e83612d44565b915061376182613720565b602082019050919050565b6000602082019050818103600083015261378581613749565b9050919050565b7f4c697374696e6720657870697265640000000000000000000000000000000000600082015250565b60006137c2600f83612d44565b91506137cd8261378c565b602082019050919050565b600060208201905081810360008301526137f1816137b5565b9050919050565b7f4e6f74206f776e65720000000000000000000000000000000000000000000000600082015250565b600061382e600983612d44565b9150613839826137f8565b602082019050919050565b6000602082019050818103600083015261385d81613821565b9050919050565b7f4552433732313a20696e76616c696420746f6b656e2049440000000000000000600082015250565b600061389a601883612d44565b91506138a582613864565b602082019050919050565b600060208201905081810360008301526138c98161388d565b9050919050565b7f4552433732313a2061646472657373207a65726f206973206e6f74206120766160008201527f6c6964206f776e65720000000000000000000000000000000000000000000000602082015250565b600061392c602983612d44565b9150613937826138d0565b604082019050919050565b6000602082019050818103600083015261395b8161391f565b9050919050565b7f5072696365206d757374206265203e2030000000000000000000000000000000600082015250565b6000613998601183612d44565b91506139a382613962565b602082019050919050565b600060208201905081810360008301526139c78161398b565b9050919050565b7f4d75737420626520696e20667574757265000000000000000000000000000000600082015250565b6000613a04601183612d44565b9150613a0f826139ce565b602082019050919050565b60006020820190508181036000830152613a33816139f7565b9050919050565b7f417070726f76616c207265717569726564000000000000000000000000000000600082015250565b6000613a70601183612d44565b9150613a7b82613a3a565b602082019050919050565b60006020820190508181036000830152613a9f81613a63565b9050919050565b6000604082019050613abb6000830185612d0f565b613ac86020830184612d0f565b9392505050565b600081905092915050565b6000613ae582612d39565b613aef8185613acf565b9350613aff818560208601612d55565b80840191505092915050565b6000613b178285613ada565b9150613b238284613ada565b91508190509392505050565b7f4576656e74207061737365640000000000000000000000000000000000000000600082015250565b6000613b65600c83612d44565b9150613b7082613b2f565b602082019050919050565b60006020820190508181036000830152613b9481613b58565b9050919050565b7f536f6c64206f7574000000000000000000000000000000000000000000000000600082015250565b6000613bd1600883612d44565b9150613bdc82613b9b565b602082019050919050565b60006020820190508181036000830152613c0081613bc4565b9050919050565b7f496e636f7272656374204554482073656e740000000000000000000000000000600082015250565b6000613c3d601283612d44565b9150613c4882613c07565b602082019050919050565b60006020820190508181036000830152613c6c81613c30565b9050919050565b7f4e487b7100000000000000000000000000000000000000000000000000000000600052601160045260246000fd5b6000613cad82612d05565b91507fffffffffffffffffffffffffffffffffffffffffffffffffffffffffffffffff8203613cdf57613cde613c73565b5b600182019050919050565b6000613cf582612d05565b9150613d0083612d05565b9250828201905080821115613d1857613d17613c73565b5b92915050565b7f4552433732313a207472616e736665722066726f6d20696e636f72726563742060008201527f6f776e6572000000000000000000000000000000000000000000000000000000602082015250565b6000613d7a602583612d44565b9150613d8582613d1e565b604082019050919050565b60006020820190508181036000830152613da981613d6d565b9050919050565b7f4552433732313a207472616e7366657220746f20746865207a65726f2061646460008201527f7265737300000000000000000000000000000000000000000000000000000000602082015250565b6000613e0c602483612d44565b9150613e1782613db0565b604082019050919050565b60006020820190508181036000830152613e3b81613dff565b9050919050565b7f5265656e7472616e637947756172643a207265656e7472616e742063616c6c00600082015250565b6000613e78601f83612d44565b9150613e8382613e42565b602082019050919050565b60006020820190508181036000830152613ea781613e6b565b9050919050565b6000613eb982612d05565b9150613ec483612d05565b9250828203905081811115613edc57613edb613c73565b5b92915050565b7f4e487b7100000000000000000000000000000000000000000000000000000000600052603260045260246000fd5b7f4e487b7100000000000000000000000000000000000000000000000000000000600052603160045260246000fd5b7f4552433732313a207472616e7366657220746f206e6f6e20455243373231526560008201527f63656976657220696d706c656d656e7465720000000000000000000000000000602082015250565b6000613f9c603283612d44565b9150613fa782613f40565b604082019050919050565b60006020820190508181036000830152613fcb81613f8f565b9050919050565b7f4552433732313a20617070726f766520746f2063616c6c657200000000000000600082015250565b6000614008601983612d44565b915061401382613fd2565b602082019050919050565b6000602082019050818103600083015261403781613ffb565b9050919050565b7f4e487b7100000000000000000000000000000000000000000000000000000000600052601260045260246000fd5b600081519050919050565b600082825260208201905092915050565b60006140948261406d565b61409e8185614078565b93506140ae818560208601612d55565b6140b781612d7f565b840191505092915050565b60006080820190506140d76000830187612e76565b6140e46020830186612e76565b6140f16040830185612d0f565b81810360608301526141038184614089565b905095945050505050565b60008151905061411d81612c76565b92915050565b60006020828403121561413957614138612c40565b5b60006141478482850161410e565b91505092915050565b7f4552433732313a206d696e7420746f20746865207a65726f2061646472657373600082015250565b6000614186602083612d44565b915061419182614150565b602082019050919050565b600060208201905081810360008301526141b581614179565b9050919050565b7f4552433732313a20746f6b656e20616c7265616479206d696e74656400000000600082015250565b60006141f2601c83612d44565b91506141fd826141bc565b602082019050919050565b60006020820190508181036000830152614221816141e5565b905091905056fea2646970667358221220e8856dd961cfcfc9f4323f2c4c51bc1c77dd00cea42f36aae93e5cbcff1ec77c64736f6c63430008110033",
  "linkReferences": {},
  "deployedLinkReferences": {}
}